:020000041000EA
:1000000000B5324B212058609868022188439860DF
:10001000D860186158612E4B002199600221596106
:100020000121F02299502B49196001219960352056
:1000300000F044F80222904214D00621196600F024
:1000400034F8196E01211966002018661A6600F04E
:100050002CF8196E196E196E052000F02FF8012189
:100060000842F9D1002199601B49196000215960AB
:100070001A491B48016001219960EB211966A021F2
:10008000196600F012F800219960164914480160C1
:100090000121996001BC002800D000471248134993
:1000A000086003C880F30888084703B5996A0420EC
:1000B0000142FBD001200142F8D103BD02B5186610
:1000C0001866FFF7F2FF186E186E02BD00000240BE
:1000D000000000180000070000035F00212200005C
:1000E000F4000018222000A00001001008ED00E03C
:1000F00000000000000000000000000074B24E7A12
:1001000000200420F7010010C3010010C5010010F9
:10011000C1010010C1010010C1010010C101001097
:10012000C1010010C1010010C1010010C701001081
:10013000C1010010C1010010C9010010CB01001065
:10014000CD010010CD010010CD010010CD01001037
:10015000CD010010CD010010CD010010CD01001027
:10016000CD010010CD010010CD010010CD01001017
:10017000CD010010CD010010CD010010CD01001007
:10018000CD010010CD010010CD010010CD010010F7
:10019000CD010010CD010010CD010010CD010010E7
:1001A000CD010010CD010010CD010010CD010010D7
:1001B000CD010010CD010010CD010010CD010010C7
:1001C00000BE00BE00BE00BE00BE00BEEFF3058054
:1001D000103800BEF2EB8871E45C0010085D00107E
:1001E0003402001090A31AE700201F49086006C8D7
:1001F00081F3088810471D48006800282FD10DA4FE
:100200000ECC002902D000F012F8F9E71849194A7B
:10021000002000E001C19142FCD1174988471749ED
:1002200088471749884700BEFDE701C901C29A42C5
:10023000FBD37047085D0010C00000201814002098
:1002400060700010000004200000042060700010A6
:10025000001004200010042000000000704709482E
:1002600002F05AF90047000008ED00E0000000D05D
:10027000181400202C2300205D230010910300108F
:10028000852400105756000006005250ABB360534F
:10029000785A001006005250861C0302885A00103B
:1002A000060052505422A29D985A00100500525048
:1002B000DE65F46860700010F8B5C046064807496E
:1002C000091A8B10C90FC91810B5491003D0044B77
:1002D000002B00D0984710BD1814002018140020DF
:1002E00000000000054B10B5002B03D00449054861
:1002F00000E000BFFFF7E2FF10BDC04600000000B5
:10030000AC21002088590010F0B5C64600B588B071
:100310006C461F0000231600E3608022F82352027F
:100320005B0200920193C023884605001B03210055
:10033000A360102204A802F06DFA3203F301134304
:1003400004A910222000059302F064FAFB03380090
:10035000E360062100F076FBA2680A4B41461A4092
:10036000094B0A481343A3603200230004F0CEFD7A
:100370002B0007CC07C3280022681A6008B080BC95
:10038000B846F0BDFFFF0A3E000005800000205087
:10039000F0B5DE46454657464E46E0B597B002F00A
:1003A0005DFB0C2000F066FBD02380221B0652016F
:1003B0005A628D498D4804F031FD8D4907008B4804
:1003C00004F02CFD8B490600884804F027FD8A497B
:1003D0000500864804F022FD040000233A000021B5
:1003E00006A8FFF791FF0123320001210AA8FFF7B9
:1003F0008BFF02232A0002210EA8FFF785FF0323AB
:100400002200032112A8FFF77FFF8020800102F065
:10041000E1F98046002800D1E9E28020800102F065
:10042000D9F9071E00D1EBE28020800102F0D2F959
:10043000061E00D1E1E28020800102F0CBF9834664
:10044000002800D1D6E2A0236C4ADB051A604246A0
:10045000802101245A606A4A0901996069481A6139
:10046000694B6A4A1C60106069485760916010616E
:10047000022268481A60684AC2461060674856609F
:1004800091601061042266481A60664A10605846FE
:100490005060916064491020116108221A6088221E
:1004A000624B52011A60042100F0CCFA04211120A1
:1004B00000F0C8FA03225E4B0A201A613D325A60EE
:1004C0005C4ADA601C6001F043FA5B4B5B4C0393BF
:1004D0005B4B02935B4B01935B4B04935B4802F0D5
:1004E000FFFA039BC5B21D70812D23D0812D31D819
:1004F000042D00D1D3E148D8012D00D1ACE0022D6C
:10050000ECD1D02380221B0652015A61312002F027
:10051000D1F9412002F0CEF94C2002F0CBF9532062
:1005200002F0C8F9494802F0DBFA039BC5B21D701E
:10053000812DDBD10A2001F00BFA02F093FA207032
:1005400002F090FA607002F08DFAA07002F08AFA60
:10055000E070C3E7C12D00D10EE242D8822DE9D070
:10056000C02DBBD10A2001F0F3F902F07BFA207014
:1005700002F078FA607002F075FAA07002F072FA78
:100580002378029AE0701370A8E7802DA6D10A2084
:1005900001F0DEF902F066FA207002F063FA607092
:1005A00002F060FAA07002F05DFAE070A078637863
:1005B0000002184323780002C018049B1860244BE3
:1005C000984200D8EBE1C821084B224A5A50183112
:1005D0005A5018315A5018315A500A2001F0B8F9BF
:1005E0007CE7C22DA6D079E7AC590010000020505E
:1005F000A059001094590010885900102000205074
:100600002900020024002050042400504000005023
:100610002988020028002050800000502910030083
:100620002C002050C0000050299803000000034017
:10063000000005400100030025230020F4220020D3
:100640002723002028230020981D002010270000C9
:100650004FC30000000024F480239B0198461A0039
:100660000021504602F0D0F842460021380002F046
:10067000CBF842460021300002F0C6F84246002185
:10068000584602F0C1F8029B1A78154208D0019B27
:10069000D8211B78DC481D404346ED012B434350D5
:1006A000930709D5019BD9491B78D7489B07DB0FD6
:1006B000DB010B43F021435053070AD5019BD4497A
:1006C0001B78D1485B07DB0FDB010B43842149001A
:1006D000435012070AD5019BCE4A1B78CA491B0713
:1006E000DB0FDB011343902252008B500121A0222B
:1006F000862388460425DB00D205D15040460131CF
:100700008C46D1500631D550D150BF4B894619681F
:10071000814301436046196019688143014348469B
:1007200019601968A943294319601968023D81437A
:1007300001431960042380219C469946043398465E
:10074000C9000738059453581842FCD053581D422D
:10075000F9D0644653581C42F5D0444653581C42C5
:10076000F1D04946AC4B059CD050D550D1504146B4
:10077000D150A54B1968814319601968A9434D46AA
:1007800019601968A943454619601968A943196099
:1007900080231025A1491B060B600B60A0490D604A
:1007A000A04D2B602B6020250D609F4D2B602B6092
:1007B00040250D609D4D2B602B6080230B609C4B72
:1007C000D050A0238022DB055204D9681142FCD10D
:1007D0000221974A9950A0238022DB055204D96C4C
:1007E0001142FCD10421924A9950A0238022DB05BA
:1007F0008831520458581042FCD108218C4A995033
:10080000A0238022DB05C431520458581042FCD189
:1008100052465A605A46874B00255F60864B5E60A1
:10082000864B5A60D02380221B0652015A61042352
:100830009946033B9846330056469A460594002451
:100840005B461B590822EB40DB001340524612590D
:100850004946EA40305992000A401343E840424674
:1008600010403A590221EA40520018430A4010430E
:1008700002F020F8802304349B019C42E0D1013532
:10088000202DDCD153460A20B246059C1E0001F003
:100890005FF8D02380221B0652019A611EE60120D8
:1008A00002F008F8422002F005F8692002F002F890
:1008B000742001F0FFFF442001F0FCFF6F2001F0E5
:1008C000F9FF672001F0F6FF412001F0F3FF6E20F1
:1008D00001F0F0FF612001F0EDFF6C2001F0EAFF74
:1008E000792001F0E7FF7A2001F0E4FF652001F0B4
:1008F000E1FF722001F0DEFF002001F0DBFF0220AB
:1009000001F0D8FF302001F0D5FF2C2001F0D2FFFC
:10091000312001F0CFFF002001F0CCFF212001F0B9
:10092000C9FF002001F0C6FF012001F0C3FF002035
:1009300001F0C0FF002001F0BDFF232001F0BAFF4D
:10094000052001F0B7FFF52001F0B4FFE12001F030
:10095000B1FF002001F0AEFF402001F0ABFF04200A
:1009600001F0A8FF412001F0A5FF022001F0A2FF45
:10097000002001F09FFF8CE70A2000F0E9FF02F061
:1009800071F8207002F06EF8607002F06BF8A070E1
:1009900002F068F82378019AE07013709EE5013048
:1009A00001F0B6FE264901F0ACFE804601F0D8FE0B
:1009B00085B20022002D0ED0280001F0A9FE011CF6
:1009C000404601F084FE8721C90501F09AFE01F03E
:1009D000C7FEC2B21202C8212B0413430A4A535065
:1009E000183153501831535018315350F5E501F078
:1009F00065FD12E501F062FD25E501F05FFD1AE5F8
:100A000001F05CFD10E5C046000020500120000010
:100A100002200000032000000C040000D010205031
:100A200000202050E81020500011205018112050B4
:100A3000440400004000005080000050C0000050FE
:100A40000000A03F094A10B5944640248300634447
:100A50001A68C0006240803414408022520113435F
:100A60001C60034B9C466044416010BD04C00140C3
:100A7000004001400123D02283401206936293611B
:100A8000094A40219446830063441A68C0004A40E2
:100A9000803111408022520113431960034B9C4660
:100AA000052360444360704704C00140004001409A
:100AB000024B18688007C00F7047C04600C0064050
:100AC000EFF3108072B6034A1368002BFCD0BFF31B
:100AD0005F8F70472C0100D0BFF35F8F0022024B65
:100AE0001A6080F3108870472C0100D070B5EFF3C6
:100AF000108C72B60D4D2B68002BFCD0BFF35F8FAE
:100B00000724CB08C618C05C01230C40A3401C007E
:100B10000440034207D118433070BFF35F8F2C604D
:100B20008CF3108870BD100001F0B0FC2C0100D0D7
:100B3000F8B54746CE46884680B5EFF3108C72B6BE
:100B4000214D2C68002CFCD0BFF35F8F9A422CD82B
:100B5000D4080727055D061901241740BC402C4224
:100B60001FD007210127894609E0D408055D061931
:100B70004C4639001440A1400C00294211D00132EA
:100B80009342F2D201204042BFF35F8F00220E4B0E
:100B90001A608CF3108800280FDBC0BCB946B04641
:100BA000F8BD254310003570EEE7BFF35F8F0023DB
:100BB0002B608CF31088012040424346002BECD080
:100BC000089801F063FCC0462C0100D00021044BC2
:100BD000044ABFF35F8F02C39342FAD17047C04605
:100BE000000100D0800100D0044A1078431CDBB221
:100BF000172B00D9102313707047C046E80D002052
:100C000010B5064B064C82B00100009318221F233A
:100C10002000FFF78DFF02B010BDC046B85900108C
:100C20001C1D002001238340002904D0034A1360C7
:100C3000034A13607047034A1360FBE780E200E059
:100C400000E100E080E100E001238340014A1360FD
:100C50007047C04600E200E0084B10309B688000FF
:100C6000C358002B07D0064A00209B1A2F229A4215
:100C70004041C0B270470020FCE7C04600ED00E0F4
:100C8000EC0D0020024B10309B688000C05870476C
:100C900000ED00E070B50D00EFF3108672B60F4A5C
:100CA0001368002BFCD0BFF35F8F0D4B10309B6897
:100CB00084001B590B4A934203D09D4201D001F09E
:100CC000FDFB074B9B681D51BFF35F8FBFF35F8F29
:100CD0000022024B1A6086F3108870BD240100D0F8
:100CE00000ED00E0CD010010F0B557464E46DE465F
:100CF0004546E0B585B0060000911700EFF3108B74
:100D000072B66A4A1368002BFCD0BFF35F8F0025D0
:100D1000674B5D579A46002D00DAA9E06B00654CE1
:100D200001935B199B009846A146C1444B4652462D
:100D30009B7910361370604BB6009B6899590B1B5A
:100D40002F2B33D95D4B994200D0ACE0019B42463A
:100D50009C465B4B6544AD0063535A4B0232A2186C
:100D6000043B9B1A1B05584A5B0D651913436B80A6
:100D7000564B0121AB80FF23AB71009BEF71AB6041
:100D80004B460B4319004C4B9B689951BFF35F8F47
:100D9000BFF35F8F0022454B1A608BF3108805B0BC
:100DA000F0BCBB46B246A946A046F0BD01200A00F1
:100DB0008243D3798C46BB4231D84546130044491F
:100DC0001B1B5B415943090D3D4B63533D4B0235A2
:100DD0006519043B5B1B1B053B4D5B0D2B43AA4672
:100DE0004D466B800425AC465546E044131F4444F1
:100DF0001B1B1B055B0D1D434B46997100999D8084
:100E000099604946DF71334B01431360BBE75800DB
:100E1000C01880002018C179B9422FD902000623DA
:100E2000D356002BF3DA02932B4B61460393131D29
:100E30009A4604235B429C46E14450464B461B1AAB
:100E40001B055B0D9C46204B9571984663464046BA
:100E500003439380019B5A199200039BA418A3801B
:100E6000029B1C4AA371009B2260E771A3608AE782
:100E700001F024FB002553465D574FE7908802930D
:100E80004005131D9A46031561469C464046D444CE
:100E9000634604302018181AE0230005400D1B0299
:100EA00018430390C5E701F009FB4FE7240100D088
:100EB00021230020EC0D002000ED00E0CD0100100A
:100EC00000A1FFFF1C0E002000E0FFFF01BDFFFF9F
:100ED000AAAA00000148804701BD0000F0B5DE4627
:100EE00057464E464546E0B50C0083B0EFF31088F8
:100EF00072B65D4A1368002BFCD0BFF35F8F5B4B6B
:100F00005B499A68030010339F00D5598D4239D050
:100F1000A5424AD0574EAA1B2F2A33D80122924607
:100F2000824091464846544A126810400190484613
:100F3000524A1060BFF35F8FEFF305829346002A99
:100F400035D0934201D001F0B9FA2A0053469A43B2
:100F50009068844208D175E04B005B189B00F31841
:100F60009868A04234D01A00062151560029F3DABD
:100F7000844253D0019B002B26D04A46404B1A6036
:100F80003D4B1A60394B9B68DD51BFF35F8FBFF358
:100F90005F8F0022344B1A6088F3108803B0F0BCD6
:100FA000BB46B246A946A046F0BD0D00EAE72A00BE
:100FB00053469A4390688442D6D1062010561300B7
:100FC000002809DA0D0031E04A462C4B1A60D9E7B7
:100FD00006201856002822DB4200111889007418D8
:100FE0008A46A1689960E179D971062161569971A3
:100FF000002925DBA488F11A640524155444091935
:10100000E0240905490D24022143998013181D4A43
:101010009B001178F31899711070ABE713005946D3
:10102000002914D1FF3191711749918015490A782F
:101030009A71164A9B1B5B415A43120D0A7099E73D
:101040001349E2E70620105613000028C4DA114ABB
:101050001149D21A083A5002400D014399800F49B4
:1010600052080A43DA8085E7240100D000ED00E051
:10107000CD010010EC0D002000E100E080E100E077
:1010800080E200E02123002001BDFFFFAAAA0000AA
:1010900001BD0000260E002000F0FFFF00F8FFFF5A
:1010A00070B5EFF3058101240443EFF3108C72B6A1
:1010B000214A1368002BFCD0BFF35F8F1F4B050044
:1010C0001F4AED1A6D416A43120D1E4D8900AE682C
:1010D00052B27658A6421CD00621595691421CD0D5
:1010E00012215956914222D01E215956914220D0A8
:1010F0002A2159560324914210D0134B19781A70A3
:101100008171BFF35F8F00220B4B1A608CF3108844
:1011100070BDAB680D4C5C50EFE70024610009190D
:1011200089005B18FF21997109499980E5E701243D
:10113000F4E70224F2E7C046240100D0EC0D0020C1
:10114000AAAA000000ED00E021230020CD0100103C
:1011500001BDFFFF054B064A1360064A136053604A
:101160009360D36013615361936170478080808086
:1011700000E400E004E400E010B5084B084C82B045
:1011800001000093002205232000FFF7D1FC002876
:1011900001DB1F23181A02B010BDC046D45900103D
:1011A00029230020024B9C4661448900016070475E
:1011B0004000003410B50400FFF716FD01002000C8
:1011C000FFF7F0FFFF232371BFF35F8F10BDC04611
:1011D00010B50400FFF708FD01002000FFF7E2FF53
:1011E000FF23A380BFF35F8F10BDC04610B504007E
:1011F0000120FFF705FD034BC3189B002360BFF3DD
:101200005F8F10BD40000034034B9C466144890051
:101210000160BFF35F8F70474000003483680B4864
:1012200010B58446614462441201090159189B18A3
:101230005C684A680120944201D802D00020C0B204
:1012400010BD1A680B689A42F9D8F7E7FFFFFF0F45
:101250000A4B1968EFF3108072B60A68002AFCD0B6
:10126000BFF35F8F1B68BFF35F8F00221A6080F3AC
:10127000108840BF002000217047C046E8220020AF
:10128000F8B5574645464E46DE46E0B598460CABA7
:101290001C780DAB1B78070091469A460568002C18
:1012A00059D1AC7B002C3BD0660029683619033E2F
:1012B00089194B78AB73002B00D1EB7300238B7033
:1012C0004B700B702D4BE218BB6812019B184A46FD
:1012D0001A6042465A600A9A9A600B9ADA600023B2
:1012E0008B704B700B706B7B9B46002B26D02200C3
:1012F0006B685946A86898475B465B005B442A6860
:10130000033B002812D058469619B070D118D35C10
:10131000002B00D073705B460C706B735C450ED075
:10132000F0BCBB46B246A946A046F8BDD3189C7097
:101330009119925D002A1CD15B460B706C734A4672
:101340004346387D00F096FB051E0AD10E9B002B0C
:10135000E6D01D70E4E7660029683619033E891956
:10136000B0E75346002BF1D12100386800F09AFD18
:10137000ECE75A705B460B706C73E0E7FFFFFF0F02
:10138000F0B5DE4657464E4645460023E0B58BB0E5
:101390000893684B8200D45800239B46099000F0C4
:1013A00099FA02000B006068EFF3108A72B6564695
:1013B00001680029FCD0B246BFF35F8F21684F7BE4
:1013C0008C46002F2ED0A5685B49A94679180901E3
:1013D000894449460868496805000E00AD1A9E41D7
:1013E000002E5FDD02000B00099800F043FB002394
:1013F00000229946002306920793002398466368CB
:10140000BFF35F8F5A461A608AF310884346002B59
:1014100012D10028C3D10BB0F0BCBB46B246A946DE
:10142000A046F0BD002300229946002306920793B0
:10143000002300209846E2E7089B494618023843FB
:10144000C047626805000E00EFF3108A72B6136899
:10145000002BFCD0BFF35F8F002E41DB2B0033430A
:1014600002D02369002B56D12368D97B002905D0EF
:101470001A68480041185218033A57709A7B002A9C
:1014800000D19F73DF73E268013FD35D0133D35511
:101490005B4623616368BFF35F8F5A461A608AF325
:1014A00010887CE7002E02D1002D00D09AE70021A1
:1014B000604600F075FC4B461A685B68069207931D
:1014C0004B469B6898464B46DB689946E368DB19B8
:1014D000013B1B7808931B020343236100208EE726
:1014E0002369002BC0D0069A079B8021521BB34171
:1014F00009068B4202D30122104B52420021049173
:101500000131039149460191414620000297009123
:10151000FFF7B6FEBCE700F0DDF92A003300121831
:101520004B41802109068B42E8D30122034B5242F2
:10153000E4E7C046CC210020FFFFFF0FFFFFFF7F45
:1015400010B5144C6368002B04D00A211248FFF731
:1015500029FE10BD2300114A1021206800F03CFB39
:10156000032000F0ABF9032000F0ECFA03200C4953
:1015700000F03AFAFFF738FB0A4B9C460323237529
:10158000D0231B061B6860446375074B80006060B6
:10159000DC60DAE7340E0020E82200201D12001083
:1015A0008113001040000034CC2100200048704717
:1015B000340E0020F0B557464E464546DE46E0B5AF
:1015C00085B0019310AB1B780600039300239A4665
:1015D000984600927268EFF3108B72B61368002B76
:1015E000FCD0BFF35F8F3568AC7B002C00D16EE080
:1015F00067002B683F19033FDB195A78AA73002A4A
:1016000000D1EA73484AA118B2680901521800983B
:101610000199106051600E9991600F99D160424616
:101620009A705A701A706B7B9946002B00D16BE050
:1016300022006B684946A86898474B465B004B44BC
:101640002A68033B002856D04846D719B870D118ED
:10165000D35C002B00D07B704B460C706B734C45F9
:1016600053D0F3681B19013B18787368BFF35F8F81
:1016700042461A608BF310885346002B08D10002B3
:10168000204305B0F0BCBB46B246A946A046F0BD1B
:10169000039B002B46D00E9B00200F999847030018
:1016A0000B433FD004000D1E1ADA009A019B121B57
:1016B000AB410092019380221206934204D301238E
:1016C0001A4C5B4200930194039B9A4682E773682D
:1016D000BFF35F8F1C608BF3108801204042D0E77E
:1016E00000F0F8F88022001969411206009001917B
:1016F0009142E9D3E3E7D3189C70D119D25D002A57
:1017000000D05A704B460B706C73307D009A019B71
:1017100000F0B0F982460028A3D02100306800F024
:10172000C1FB9EE70020ACE7FFFFFF0FFFFFFF7F3D
:10173000407D7047F0B5EFF30583CE46474680B550
:1017400005000C0085B0002B12D02A4A0020536AF5
:10175000A34203D3926A0130AA4204D305B0C0BCAD
:10176000B946B046F0BD1B1B5A1E9341D8B2F5E7EF
:10177000214E02930193214B0200009330000B0095
:10178000FFF718FF031EE0DD20BF7168EFF310873D
:1017900072B60A68002AFCD0BFF35F8FDAB29446B3
:1017A000FF2230681A40417B61450FD001688946AD
:1017B00051008846494690444144033989780029BC
:1017C00004D13269934209D1316107E0F1681B0A03
:1017D0008A18013A1278DBB29A4207D07368BFF3D5
:1017E0005F8F00221A6087F31088AEE7614600F031
:1017F00059FBF3E700400540340E00205112001061
:10180000F0B5EFF30582D6464F4646461000C0B508
:101810001038EFF3108872B6214C2368002BFCD0EF
:10182000BFF35F8F0123190081401E4D1F006963C4
:10183000AA461D4D29601D4D2E78AC463500C54089
:101840002F402B4215D053465F6A194B8500EB5849
:101850009F4218D36246174B8E43EB581670BFF366
:101860005F8F0022226088F31088002B06D09847F3
:1018700004E0BFF35F8F276088F31088E0BCBA46AE
:10188000B146A846F0BD0C4B92009C4662441368DA
:101890001360BFF35F8F0023236088F31088EDE7A8
:1018A000280100D0004005403C7005402623002060
:1018B000FC220020041C0020D03F054010B5034B43
:1018C00001001800024AFFF711F910BD2023002083
:1018D000F0590010034B596A0A00986A596A8A4203
:1018E000FAD170470040054070B504000D00174A5A
:1018F000536A1900966A536A8B42FAD13000190074
:1019000024184D41AB4216D813D0104B2A005B6A05
:101910009D4203D90D494B6A9342FCD3934207D1B0
:101920000A4A02E0516A994202D1916AA142F9D36E
:1019300070BDA642E9D9054B5B6A1C005A1CEFD06A
:10194000012201246442E5175242E3E700400540CA
:10195000234B70B598420BD84201121A21499200CC
:101960001218886AD2008B6A1B1A9A42FBD870BD83
:10197000FA2200239200002100F08CFE04000D00EA
:10198000184A536A1900966A536A8B42FAD130009A
:10199000190024184D41AB4218D9124B5B6A1C0048
:1019A0005A1C0AD0012301246442E5175B420D4909
:1019B0004A6A9A42FCD39A42D9D10A4A02E0516A51
:1019C0009942D4D1916AA142F9D3D0E7AB4201D177
:1019D000A642E2D8034A2B00526A9542E7D8EAE7CA
:1019E0009BC420000040054070B504000D00EFF3DB
:1019F000108672B61A4A1368002BFCD0BFF35F8FB3
:101A0000002D1BD02000FFF73DF9164981420AD076
:101A10002000FFF73FF901212000FFF703F9012320
:101A2000A340114A1360114BA400E550BFF35F8F30
:101A300000220B4B1A6086F3108870BD0121A14073
:101A40000A4BA200D5500A4B20001A788A43054958
:101A50001A70FFF743FA00212000FFF7E3F8E5E7EB
:101A6000280100D00118001038600540041C002037
:101A700026230020F0B54F46D6464646C0B507009F
:101A80002B4C616A0D00A66A616AA942FAD18B42A9
:101A900008D805D00120E0BCBA46B146A846F0BD42
:101AA000B242F7D9EFF3108A72B6224801680029D2
:101AB000FCD0BFF35F8F0125BD401F491C4C8846F9
:101AC000097889462943C9B28C4641466046087068
:101AD000391D890065630A511849B8004350216ACD
:101AE0000020294219D0616A0800A66A616A814211
:101AF000FAD18B4219D801D1B24216D8CC450BD0BD
:101B00000B4B1F221D625D6301233A4093400C4A38
:101B1000136043464A461A700120BFF35F8F0022CC
:101B2000044B1A608AF31088B5E70020F5E7C04639
:101B300000400540280100D026230020FC22002080
:101B400080E200E0EFF3108C72B60A490B68002BBC
:101B5000FCD0BFF35F8F01238340074A074813621D
:101B600002789A430270BFF35F8F00230B608CF3FF
:101B700010887047280100D000400540262300202F
:101B800070B506000D00140000291DD0002A12D0E7
:101B900073688068984762006B0012195B1931689E
:101BA000033A033B002808D08A189570C818CB5C0C
:101BB000002B0BD10470280070BDCB189C708818C6
:101BC0008A5C002A05D105702000F5E75370047087
:101BD000F1E75A700570F7E710B583600023CCB2C7
:101BE00043730133426004738373C4730068421CFF
:101BF000012C05D90133DBB2137003329C42F9D1B9
:101C0000FF230B405A00D318C01800230338437039
:101C100010BDC04670B505000C1E07D063000168FA
:101C20001B19033BCB185A78002A01D1200070BD44
:101C3000500080180338091800204E7848702100A1
:101C400058702800FFF79CFF310004002800FFF7C0
:101C5000E1FF0600002C20D00028E7D03200210050
:101C60006B68A86898477200630092191B1929686D
:101C7000033A033B002808D08A189470C818CB5C3C
:101C8000002B00D053700670D0E7CB189E708818D8
:101C90008A5C002A00D05A7004703400C6E7C0463F
:101CA000F0B557464546DE464E46E0B50D006F009E
:101CB00001687F19033F0400C85D83B00192CA190F
:101CC000002850D043001B18033BCB185E78B44665
:101CD000002E1AD1019E002E42D0E67B002E04D0A9
:101CE00073009B19CB18033B5D70A37B002B00D1C5
:101CF000A573E57300282FD10023537003B0F0BC07
:101D0000BB46B246A946A046F0BD72006244033A03
:101D10008A185178884600215170894659703200DE
:101D200001002000FFF72CFF43468246002B07D01E
:101D30005B0021684344033BCB185A78002A16D134
:101D4000424651462000FFF71BFF2168019BCA193C
:101D5000002BC2D10028CFD043001B18033BCB1867
:101D600000219970C8E7019B002BB6D1C4E7500051
:101D700080180338091848788346484648705870D8
:101D800041462000FFF7FCFE594680462000FFF741
:101D900041FF414602002000FFF7F2FE8046CFE7F8
:101DA000F0B557464546DE464E46E0B583B0019154
:101DB000457B04006F0000687F19033FC15DC219B5
:101DC000002952D04B005B18033BC3185E78B44621
:101DD000002E1CD1019E002E44D0E67B002E04D0A4
:101DE00073009B19C318033B5D70A37B002B00D1CC
:101DF000A573E573002931D1002328005370617366
:101E000003B0F0BCBB46B246A946A046F0BD720086
:101E10006244033A82185078804600205070814610
:101E2000587032002000FFF7ABFE43468246002B7D
:101E300007D05B0021684344033BCB185A78002A43
:101E400017D1424651462000FFF79AFE019B010040
:101E50002068C219002BC0D10029CDD04B005B18DF
:101E6000033BC31800209870C6E7019B002BB4D138
:101E7000C2E750008018033809184878834648465E
:101E80004870587041462000FFF77AFE5946804658
:101E90002000FFF7BFFE414602002000FFF770FE62
:101EA0008046CEE770B5050000292CD0437B8B42DD
:101EB0002ED04C0000686418033C0419A278002A54
:101EC00021D053009B18033BC25CC6188A4202D142
:101ED0001BE0002A08D053009B18033BC3185A7814
:101EE0008A42F6D162785A70002301222800A3703A
:101EF0006370FFF7D5FE697B02002800FFF740FE04
:101F00006873012000E0002070BD63783370EBE758
:101F100001221900FFF7C4FEF2E7C04610B50C20FD
:101F200082B000F0B1F9FEF7C3FD002810D08B4B52
:101F30008B488B498B4A186059609860D96018614A
:101F400059619861D961186259625A6202B010BD34
:101F5000854CA06700F0EEF90122844B1A60636C97
:101F6000012BFCD10322824B1A607F4A936B012B19
:101F7000FCD1013301217F4A7F480093043300F0F4
:101F800031F905237D4A009301217D4800F02AF9AB
:101F90007C4B5A68FF2A02D8802252005A60802265
:101FA000734B6E4C12011A602169002907D06069D9
:101FB00000F0E4FA013043001B18033BFDD2E0229D
:101FC000704B714819680A4002600222196851403A
:101FD00001320A40042102609A681142FCD080213B
:101FE0006A4A09011160802252005A60684B2361DD
:101FF000684B5968FF2900D85A60032201215B4BC6
:102000001A60644A93681942FCD0E02310680340C8
:1020100061480360126803234A40022113405D4A6D
:10202000036093681942FCD080215C4B0901196060
:1020300080215B4B4900516063615A4B5A68FF2A0B
:1020400000D859608022584B12011A60E1690029BA
:1020500007D0606900F092FA013043001B18033B7F
:10206000FDD2E0234F4A11680B4050490B6080219C
:102070004F4B090119608021394B49005160E361E0
:102080004C4B5A68FF2A00D8596080224A4B1201F3
:102090001A60216A002907D0606900F06FFA0130E8
:1020A00043001B18033BFDD2E023424A11680B405A
:1020B00042490B608021424B0901196080235B007B
:1020C00053608022264BD20223623E4B59689142D4
:1020D00000D25A6080223C4B12011A60616A0029CA
:1020E00007D0606900F04AFA013043001B18033B37
:1020F000FDD2E023334A11680B4034490B60802144
:10210000334B090119608023DB025360154B636276
:10211000304B5A68FF2A02D8802252005A6080222F
:102120002D4B12011A60A169002907D0606900F0E7
:1021300025FA013043001B18033BFDD2E023254A5A
:1021400011680B4025490B608021254B090119605E
:1021500080235B005360124BA361F7E61814002044
:10216000006CDC021BB70000008000403CB0004067
:1021700030B00040002F685900800240008C864734
:1021800000C00240308000403090004030A000404D
:10219000001BB7003C8000403C9000403CA0004049
:1021A000405973075480004054B0004054900040A0
:1021B00054A000406080004060B00040609000404B
:1021C00060A000406C8000406CB000406C9000400B
:1021D0006CA000404880004048B00040489000405B
:1021E00048A00040F8B5040022481E0017000D006A
:1021F00000F0C4F90100380000F0C0F9069B360475
:102200001B031E432368002B22DB1B4B1B49E318D7
:102210005A1E93418022920194465B421B0B184A3E
:102220001B0363441360174A13601F008A689743B7
:10223000FBD1C022231D92011A4321232560A060F7
:1022400013602368002BFCDA0823E6601360F8BDF6
:102250003F2322681340AB42D7D1A3681B051B0D57
:102260008342D2D1EE22E368D2021340B342CCD1F2
:10227000EDE7C046001BB7000040FDBF00C00040B6
:1022800000E0004000F000408023024A9B0003432E
:10229000D36270470080054010B580241C4BE405D4
:1022A0001C6000281AD001231A4C18431A4BDC6119
:1022B0001A4C44401C62596298628021144BC90533
:1022C0001960174817490860E021C9041960002AFD
:1022D00007D18022144B12061A6010BD0E4BD86134
:1022E000EBE753019B1A9B009A18802312015B04B1
:1022F0009A4209D213000D490B60074B5A608022A5
:10230000094BD2051A60E8E7094B1A00F3E7C0460B
:1023100000B00540D3C007B0008005402D3FF84F06
:10232000FCFF01000820014000A00540A42100207E
:10233000FFFFFF00AA23064A1B0113602F23054954
:10234000D360054B19605368002BFCDA7047C04618
:102350000040024000B0FA00006002402C4B2D4AC1
:1023600070B51A602C4A2D4B2D491A6014008B68E9
:102370009C43FBD12B4D2C4EB54208D2013E761B1F
:10238000B60808CD984723000134B342F9D1FFF7CE
:10239000C5FD264A214B1A60214A9368DB43DB01C5
:1023A000DD09002BF9D14022214B224C224E9A67A5
:1023B0005A671A67DA66B44208D223682000002BF5
:1023C00020D00834FEF704FFB442F6D31B4C1C4E59
:1023D000C022B168200000F01DFAB460FEF7F6FBE1
:1023E000FEF7B8FEFFF7ACF8164C174EB44208D211
:1023F000013E361BB60808CC98472B0001359E429B
:10240000F9D170BD0834FEF7D5FEB442D5D3DDE76F
:1024100000E00040BFCDFBFEFE7F3C0000F000402E
:1024200000C000400014002010140020FFFFFF0136
:1024300000F00140F81300200014002000000020EC
:1024400000ED00E0101400201814002000BEFDE78D
:10245000094A03001068002805D00849C3188B42B8
:1024600007D81360704706480449C31810608B42B0
:10247000F7D901204042F5E79C1D00200000042010
:102480002C23002010B5FFF7E1FFC0460FB400B5C4
:10249000084883B000F05AFA049B002B07D005A926
:1024A0001800019100F018F8034800F04FFA0120DD
:1024B000FFF7CCFF145A0010245A001010B5014841
:1024C000FFF7E4FF285A001010B5002800D110BD16
:1024D00000F0F0F9FBE7C04610B5094A03001468A4
:1024E00084B0002C08D0012200910648524203A972
:1024F000A047012004B010BD00F028FA0020F9E741
:10250000A0210020C924001001480421014B1847D4
:10251000600E002039250010142310B50100188822
:1025200004331B88984710BD162310B50100188886
:1025300002331B88984710BDF8B54746CE4680B594
:102540000F1E19D0142399460433040000250126D8
:1025500098464B461888434621681B88984701C413
:10256000431E9841013540420640AF42F1D1300050
:10257000C0BCB946B046F8BD0126F8E7114A936FD2
:102580009B0813D210665166002905D0FFE7FFE7CC
:10259000FFE7516F106F704704B5002801D000208D
:1025A000C04303F0B9F9002104BDC046F0B5146E74
:1025B000556E576F166FFFF7E5FF14665566576740
:1025C0001667F0BD000000D010B50148FFF75EFFB0
:1025D000345A0010132370B51D78012D15D010DD6D
:1025E0001B48FFF7A1FF1B4C01008022200000F0D8
:1025F00011F9022D06D01848FFF78EFF174B18600F
:1026000070BD144C164BA364F5E7164B114C2360B8
:102610006360A360E36023616361A361E36123629C
:102620006362A362E36223636363A363E36323647C
:102630006364A364E36423656365A365E36523665C
:102640006366A366E36623676367A367E367D9E707
:1026500053440000481500204C330000E4210020C2
:1026600069260010C925001007B5604601880A0ACE
:102670000230DF2AFAD1C9B2820804D30288408826
:102680000004104300E00068014A5050039007BD69
:102690004815002051434343C9188C46110C83B29E
:1026A0004B4310B4040C614392B280B25043624376
:1026B0001C041B0C001910BC59411304120CC01847
:1026C00051416144704700004840414048400E4B32
:1026D0005B6818470C4B1B6818470C4A936F9B08A4
:1026E00002D2094BDB681847F0B5146E556E576F70
:1026F000166FFFF7F6FF054A1466556657671667AB
:10270000F0BD014B9B681847E8210020000000D075
:10271000491A002808D1084670470000C10FC907B0
:1027200000D54042002817D0F44603B40B4B1B6879
:10273000984706BC81409E384042803107D20B0644
:1027400007D04900490AC0051043084360470130DB
:10275000F8E7490A8902F5E770470000E421002004
:10276000014B5B6A18470000E821002010B50148C2
:10277000FFF78CFE5C5B0010132310B510481C782B
:10278000FFF7D2FE0100012C0AD003DD80220D48A4
:1027900000F040F80C48FFF7BFFE0C4B186010BD6E
:1027A000084C5422200000F035F8220008498032FD
:1027B0002368002B00D1216004349442F8D1E9E76A
:1027C00053460000E82100204C330000E4210020A3
:1027D0006D27001010B5040002F0E4FB002804D0BF
:1027E000034B04199C4200D810BD0248FFF74EFE6F
:1027F000000004204C5A001001480421014B1847E6
:10280000700E002039250010014B1B68184700008E
:10281000700E0020014B5B6818470000700E00200E
:10282000F0B5C64600B5437D07000D001600002B2D
:1028300038D0002A2EDD00216A1E90466A5C037D96
:102840004C1C00200A2A0CD0A64216D043461B5D21
:1028500021000D3B5A4253416A5CDBB24C1C0A2AF0
:10286000F2D1002BF0D1884217DB022110483B68DF
:102870009847A64207D02000E8E7864203DD311AD8
:102880003B6828189847AD19013D2B780D3B5A42FB
:1028900053413B7580BCB846F0BD091A3B68281807
:1028A0009847E2E70368110028009847F2E7C0461E
:1028B000985B0010F0B5CE46474680B583B06B46B6
:1028C0000600DD1D2870FFF705F800231A4A1218CC
:1028D0004B41802109068B4202D30122174B524201
:1028E00017490800884603F037F8164B81461C68E4
:1028F000002C14D0144F02E02469002C0FD0236860
:10290000002BF9D03B68002B01D0A342F4D120006A
:1029100001222900FFF784FF2469002CEFD14B46E8
:10292000002B05D1300003B0C0BCB946B046F0BDA5
:10293000404602F0D9FFF5E740420F00FFFFFF7F5E
:10294000F8130020881D0020941D0020F0B5DE46FD
:1029500057464E464546E0B585B0070002F02CFECE
:102960000600FEF7B7FF00232B4A12184B418021C7
:1029700009068B4202D30122284B52422849080003
:102980008B4602F0E9FF274B01901C689A46002C09
:102990003BD0254B984602ABDD1D0A23994602E049
:1029A0002469002C17D02368002BF9D043461B68FC
:1029B000002B01D09C42F3D1200032003900FFF7F8
:1029C0002FFF4B462000012229002B70FFF728FF24
:1029D0002469002CE7D1019B002B18D153461C68B9
:1029E000002C06D06368002B0BD098472469002C7C
:1029F000F8D1300005B0F0BCBB46B246A946A046AF
:102A0000F0BD2469002CEDD1F3E70028F1D0584641
:102A100002F06AFFE2E7C04640420F00FFFFFF7F7F
:102A2000F8130020881D0020941D00200A4A136816
:102A3000002B05D10CE01A001B691032002B07D0C7
:102A40009842F8D1002902D10369136001617047EF
:102A50000029FCD01060FAE7881D002010B500F0B6
:102A600063FA10BDF0B5C646194B00B51A685F6829
:102A70009046184E184D82B03468002C03D115E0F2
:102A80002469002C12D02B68002B01D09C42F7D176
:102A9000A368002BF4D0012101A898470028EFDD9E
:102AA0006B46187902B080BCB846F0BD0B4B5A6A31
:102AB000974207D89B6A434502D301204042F1E781
:102AC0009742FAD101200021FEF70EFFD4E7C0465D
:102AD000605B0010881D0020941D00200040054010
:102AE000F0B5CE464746040080B583B0FEF7F2FE4F
:102AF00026000027802336184F411B069F4202D331
:102B00000126194F7642194BB9469846184D43464F
:102B10001C68002C03D116E02469002C13D02B680C
:102B2000002B01D09C42F7D1A368002BF4D00121E7
:102B300001A898470028EFDD6B46187903B0C0BCA8
:102B4000B946B046F0BD0B4B5A6A914507D89B6A0F
:102B5000B34202D301204042F0E79145FAD101206F
:102B60000021FEF7C1FED2E7FFFFFF7F881D002096
:102B7000941D0020004005407047C0460022014BD4
:102B80001A707047222300204B790020FF2B0BD1B5
:102B90008B79002B08D1CB79012B05D1082A03D9D9
:102BA000024B8A7809301A707047C04622230020F1
:102BB0000120704770B5012901D0012070BD134973
:102BC0005379107909781B02034300209942F5D10B
:102BD0005378012B08D0022BF0D100206422002171
:102BE000FFF75AFB0120E9E79478D278050012023A
:102BF0001443D20502D5620A93401D000448FFF732
:102C00008BFC7F21030021402800984722230020CD
:102C10005542000001230370004870479C5B001080
:102C20004B780A781B0213438A7810B512041A43B2
:102C3000CB781B0613439622D200934200D010BDDE
:102C40000348FFF769FC0021030008009847C046CD
:102C500055420000024B1860024B19607047C04695
:102C6000141D0020181D002010B5024B1878FDF728
:102C7000EBFF10BD23230020114B70B51A68002A0A
:102C80001AD0EFF3108172B610680028FCD0BFF3A1
:102C90005F8F00200B4A596010701B68BFF35F8F75
:102CA000186081F3108800240025074B1878FDF781
:102CB000CBFF2900200070BDFA240025A400F4E712
:102CC000C4210020242300202323002070B5040009
:102CD00000200E0001F0E8FA002836D0002001F0B4
:102CE000FBFA002831D0FEF7F5FD0023184A121830
:102CF0004B41802109068B4216D2164D280002F066
:102D00002BFE002821D0002001F0CEFA00280FD1A0
:102D100001200021404200F0C1FC0324644228004D
:102D200002F0E2FD200070BD01220B4B5242E4E7AD
:102D3000002001F0D1FA0028EAD021003200002062
:102D400001F0D6FA041EEAD1E7E703246442E9E77A
:102D500040420F00EC220020FFFFFF7FF8B5DE4667
:102D6000574680B505000C00FEF7B4FD0023374A36
:102D700012184B41802109068B4202D30122344BA9
:102D80005242344908008A4602F0E6FD002803D189
:102D9000C0BCBB46B246F8BD002001F085FA002851
:102DA0004AD00026002C43DD2B4B9B4614E0A9198A
:102DB000002001F011FB070001200021404200F03B
:102DC0006DFC002001F0CCFAFEF784FD224BF619D1
:102DD00018605960B4422BDD002001F017FBA71BDF
:102DE0000200B84200DD3A00002AE0D101200021B3
:102DF000404200F053FC002001F0B2FA002001F044
:102E000053FA002814D0002001F000FB0028E1D183
:102E1000FEF760FD5B460F001A685B680021844680
:102E20000E4812184B419F4202D8D3D19445D1D9B4
:102E3000504602F059FDABE700200021064B186018
:102E40005960504602F050FDA2E7C04640420F00D4
:102E5000FFFFFF7FEC2200204015002020A107008B
:102E600010B5244C84B00021200002F065FD00283C
:102E70001CD1214B1A68002A16D0EFF3108172B6CC
:102E800010680028FCD0BFF35F8F01241B485960F5
:102E900002781B68D2B20470BFF35F8F0020186005
:102EA00081F31088002A0AD004B010BD012000214F
:102EB000404200F0F3FB200002F016FDF4E7FEF7BD
:102EC00075FB0400FEF706FDFA220023920012189B
:102ED0004B41802109068B4202D30122084B52420A
:102EE0000121029100210191064920000091FEF785
:102EF00061FBD9E7EC220020C4210020242300201C
:102F0000FFFFFF7F792C0010054B10B518680028D3
:102F100004D0044B0022196801F036F810BDC046F9
:102F2000141D0020181D0020D02310B51B0684B0EE
:102F30001C68FEF73BFBFEF7FBFBA04202D0002023
:102F400004B010BD274B1B7801F042FC2648FEF769
:102F500031F90120FEF710F9FF23244C2449207099
:102F60001840FDF797FE20780121FDF75BFE052054
:102F7000FDF772FE002827D1FEF718FB0400FEF7CC
:102F8000A9FCFA220023920012184B418021090665
:102F90008B4202D30122174B5242012102910021A0
:102FA0000191154920000091FEF704FB082204005E
:102FB00000211248FFF728FC002CC0DB104801213B
:102FC000FFF734FD0120BBE700220E490520FDF785
:102FD0008BFEFDF709FE094B01001800FEF714F9FE
:102FE000ECE7C046045D0010EC2200202323002003
:102FF000612E0010FFFFFF7F792C0010C4210020FC
:10300000800E0020692C0010004870472C5C0010D6
:1030100000487047D85B001010B5040017480378CB
:10302000002B20D0002C06D1154B16484380063BC0
:10303000FF3B038010BD052C19D8134BA400E058AA
:1030400012490123013804E001330A800231142BB4
:103050000FD0C25C002AF7D1C022DBB25B00920025
:1030600008481343E5E7112100F01AF8DAE70020D9
:10307000E0E7CA2303489B00DBE7C0460C2300209F
:1030800009040000601D0020C05B0010621D0020CC
:1030900010B5024800F0D8F810BDC046DC21002071
:1030A00030B54B1E012900D1A7E0664A11780D0901
:1030B0002C0030349F2900D9A2E00470012B00D1EC
:1030C000BEE00F21147821400C003034092900D9CA
:1030D00098E04470022B00D1B2E054782509290011
:1030E00030319F2C00D990E08170032B00D1A7E0F4
:1030F0000F2121400C003034092900D987E0C47029
:10310000042B00D19CE094782509290030319F2CB4
:1031100000D97FE00171052B00D191E00F21214002
:103120000C003034092900D976E04471062B00D117
:1031300086E0D4782509290030319F2C00D96EE033
:103140008171072B00D17BE00F2121400C0030342E
:10315000092966D8C471082B00D171E014792509BA
:10316000290030319F2C5FD80172092B68D00F21C4
:1031700021400C003034092958D844720A2B5FD002
:1031800054792509290030319F2C52D881720B2B9C
:1031900056D00F2121400C00303409294BD8C4727D
:1031A0000C2B4DD094792509290030319F2C00D962
:1031B000073101730D2B43D00F2121400C00303417
:1031C000092901D937310C0044730E2B38D0D1793D
:1031D0000C09220030329F2900D9073282730F2B4D
:1031E0002ED00F220A4011003731092A01D830327F
:1031F0001100C173102B23D010300023037030BD99
:1032000007345AE737310C0063E707316CE7373191
:103210000C0074E707317DE737310C0085E7073193
:103220008EE737310C0095E707319DE737310C0009
:10323000A3E70731AAE737310C00C4720C2BB1D1D8
:10324000C018DAE7DC21002010B588B004000D2298
:1032500000216846FFF7D8FA0D22002104A8FFF7E5
:10326000D3FA4B236A466846137004A90D2202F074
:1032700033FB1521082220006944FFF7CBFA08B080
:1032800010BDC04610B501210520FDF7CBFC10BDD7
:1032900010B500220021024800F058F910BDC046C8
:1032A000C01D00208022024B5202DA647047C046E3
:1032B00000201150F0B5C64600B5060000F020F918
:1032C0000C231B4DFF22AB6705201A49FDF70CFDAF
:1032D00040239846184C402200212000FFF794FA22
:1032E00043460127238321210023144A6770A260EB
:1032F000136063545F31618441462187053963540B
:103300000F4A10496360E260A1620B606362E2628F
:1033100002F0FAFA80239B052F64EB6490230A4A9B
:103320003000EA50FFF7BEFF80BCB846F0BDC04693
:1033300000001150A1040020A01D002084001050A6
:10334000000110508000105010D001000B785B0677
:1033500002D14B78052B00D070478A78014B1A6058
:10336000FAE7C04600001150F0B5C64600B5CC786B
:1033700088780A794B797F21A40701401B02C5098F
:1033800013434F00A20F1400324E7A195201B218A3
:10339000907001206840507000205B055B0DD0707C
:1033A0001383D4768046CA00012D33D02A48844640
:1033B000880162448446B44460468260404610609E
:1033C000002933D0254AC9009046624641445160E5
:1033D0003F223F339343022C00D15B0020487A19EF
:1033E00001685201B218D1601E4ACB1803605140E7
:1033F0005A40802388465B019A4228D84346A40657
:103400001C4380237F197F01F61972681B06234332
:10341000136011E014488446880162448446B44431
:103420006046826240461060002909D100236D0188
:1034300075196B600D4BEB60012080BCB846F0BD88
:10344000084AC9009046624641445162C0E7FFF70E
:1034500035F8D3E7A01D0020840010500400105060
:10346000A8210020000010508000105000011050D2
:1034700010B502F049FA10BD10B57F200C002040B5
:103480004000E409110000191A00034B4001C01864
:1034900000F05CF8012010BDA01D00207F23180063
:1034A00010B50840CA090B4203D107497D3B9B1A5E
:1034B0008B66400080188022044B40010021C01818
:1034C000120102F059FA10BD00201150A01D002079
:1034D0007F22130010B50B400A4200D110BDC9096C
:1034E0005B005B1804485B01C018002300220349FD
:1034F000C37002F041FAF1E7A01D0020FFF7FFFFC3
:1035000080220D4B520410B51A600C4B0C491A6006
:1035100010008B689843FBD10A4C9C2200212000AC
:10352000FFF772F98022002152010748FFF76CF97A
:103530000923636710BDC04600E0004000F0004072
:1035400000C000400000115000001050002310B5D2
:10355000C3820133828283760161040002F0CCF9D8
:10356000002804D080219023074A8902D1502000EE
:1035700002F0DAF9002802D00123237710BD2000E1
:1035800002F0F2F9FAE7C04600201150024B5878D9
:10359000431E9841C0B27047E01A0020024B1878D1
:1035A0004007C00F7047C046E01A0020034B187850
:1035B000FF38431E9841C0B27047C046BC0E002081
:1035C000F8B5CE46474680B52A4E05003378FF2B26
:1035D00001D001203DE0532200212748FFF714F9D4
:1035E000264C2000FDF7E6FD254B1C60254C2000F5
:1035F000143CFDF7FBFD200001F0CCFB224B234FD8
:103600001C60234B9846002F1ED01800FFF702FBCA
:10361000204B186043461B781F4A00249146002F18
:1036200014D04A46A3421AD89047434601341B7827
:10363000E4B2A342F3D228003570FFF73BFE280026
:10364000FFF720FE012004E01B78E5E7002C04D002
:103650000020C0BCB946B046F8BD0F4AE4E70D4AA9
:10366000630012681B19DB00D318002BF0D01A6816
:10367000DAE7C046BC0E0020E01A0020981A0020AD
:10368000341B0020B40E0020381B0020152C001025
:103690001D230020B817002025440010F0B5DE4699
:1036A00057464E464546E0B591B001F097F80028E0
:1036B00000D1FCE0C34BC44E9946C44B0DAC029301
:1036C000C34B9B464B46019335686A69EFF3108103
:1036D00072B61368002BFCD0BFF35F8FA96128007E
:1036E000210001F085F96A69AB69BFF35F8F0021A2
:1036F000116083F31088002800D1D8E06378082B8C
:10370000E2D8019A9B00D3589F466368002BDBD018
:10371000A0689847D8E77F202179AC4D0840430046
:10372000CA09EB189B181D0001273035EA78BA4307
:10373000EA70EA780337BA43EA70002800D1F2E071
:10374000A44FDB7C002F06D0A34A1278934200D20C
:10375000F1E09B1ADBB2002B00D0A8E09F4DA368DC
:1037600062792078A847AFE70122984D01202B7895
:10377000042113432B703323EA5C8243EA54EA5C4E
:103780008A43EA540133EA5C8243EA54EA5C00204B
:103790008A43EA5423789A4600F0F8FC60222379A1
:1037A0001A40602A00D1B5E0402A00D1AFE0DB0624
:1037B000DB0E012B00D1D3E0022B00D120E1002B46
:1037C00000D0A7E0202A00D153E1002A00D0A1E0D8
:1037D0006379092B00D99DE0814A9B00D3589F460D
:1037E000029B1B78DB0700D46EE77E4B002B00D1D9
:1037F0006AE700E000BF67E7744D2B78DB0700D471
:1038000062E7794B002B00D15EE728780007C00FF4
:1038100000E000BF58E7002523786E4F9A466E4BB4
:1038200098461B78002F49D05A46AB4263D8504681
:103830009047434601351B78EDB2AB42F2D2634D5F
:10384000532200212800FEF7DFFF1022FF21E81C91
:10385000FEF7DAFF28002022FF211330FEF7D4FF05
:103860002EE0002523785B4F9A465B4B98461B78E9
:10387000002F2ED05A469D4233D3504690474346A0
:1038800001351B78EDB2AB42F2D2504D53220021EC
:103890002800FEF7B9FF1022FF21E81CFEF7B4FF55
:1038A00028002022FF211330FEF7AEFF14E011B0F4
:1038B000F0BCBB46B246A946A046F0BD002D38D0AC
:1038C00000F05AFC494B002B00D1FDE600E000BFA0
:1038D000FAE6002D19D03D4D00F04EFC2379AB7077
:1038E000F2E6434A6B0012685B19DB00D318002B29
:1038F000F1D05A68C1E73E4A6B0012685B19DB00E1
:10390000D318002BDCD05A6891E7314AB5E7394823
:1039100000281AD120780021FFF7C0FD80212078EF
:10392000FFF7BCFDD0E6A3686279207800F042FC86
:10393000CAE6274A7BE72E4A58001268C318DB0004
:10394000D318002BB3D01D6909E700F01FFC01213B
:1039500050460EAA00E000BF002800D0B4E6D9E728
:10396000237A0F2BD6D81B4FEB18DB78002F06D00D
:10397000194A1278934200D29CE09B1ADBB2002BCA
:10398000C8D11D481D4D00F001FC01215046EB68D7
:103990000EAA9847002800D096E6602215002379E9
:1039A0001D401A42B6D163790A3B012BB2D800F010
:1039B000EDFB63790A2B00D17DE150460EA900F0A2
:1039C0006FFB81E6405C0010381B0020E01A0020ED
:1039D000A1440010152C00101D2300209546001056
:1039E000645C001000000000000000000000000007
:1039F000B817002000000000B1450010CC5C00109A
:103A00007023217A0B4285D1C80984460F330B40BD
:103A10005B00E8186044C07CB14F8046002F07D09F
:103A2000B0480078804550D34746381AC0B2804627
:103A3000404600283AD1002A00D0F5E0AA4A904634
:103A4000677902203A008243012A00D1F0E0002F7A
:103A500000D05FE7EB1863443033DB780CAA9B0798
:103A6000DB0F02321380504602230EA900F02EFB1A
:103A70002AE6237A0F2B00D94CE7994FEB18DB7815
:103A8000002F06D0974A1278934200D2F3E09B1A97
:103A9000DBB2002B00D03DE79448934D00F076FB5D
:103AA00001215046EB680EAA984755E79046002A38
:103AB000C6D02FE78E4A59001568CB18DB00ED18E9
:103AC000002D00D126E7E8685DE7474688487F007B
:103AD000006847448046FF00B844002AB0D04346FF
:103AE000002B00D116E7D86800F050FB43460121B7
:103AF0005046DB680EAA98472EE7A37903931A0075
:103B00006B789A4207D06B78002B00D058E1039B6A
:103B1000002B00D0F8E0039B50460EA96B7000F01C
:103B2000BFFAD1E56B780CAA02321370504601231C
:103B30000EA900F0CBFAC7E5E3881A0AD8B20F2A1B
:103B400000D9E7E66B499300CB589F460EA800F0DA
:103B500023FB5046A179FFF79BFB02222B781343EE
:103B60002B70B1E5E388012B00D0D3E608222B7837
:103B7000504693430EA92B7000F092FAA4E5022060
:103B800029780CAB9A1C8B068908DB0F01400B438C
:103B900068E7E388012B00D0BCE608222B7850466A
:103BA00013430EA92B7000F07BFA8DE5524B002BCE
:103BB00000D1AFE600E000BF021E00D1AAE6D37834
:103BC00091781B020B4350460EA900F07FFAC3E622
:103BD0004A4B002B00D19DE600E000BF021E00D141
:103BE00098E6504613780EA900F070FAB4E62189E1
:103BF000FFF712FA021EF4D18CE6022A00D12DE161
:103C00003F4B002B00D185E600E000BF0200002AF8
:103C100000D17FE6D3E7FFF7F7F9122302000EA9E0
:103C2000504600F053FA97E62F4B304898465BE732
:103C3000E288002A09D1334A1078012F26D0EF18E4
:103C400067443037FB789B073ED54346002B00D1B5
:103C50003AE5D86800F09AFA43460121DB680EAADB
:103C600050469847002000F091FA3423EB5CDB07C4
:103C700000D529E5A1E61E4A59001568CB18DB00DE
:103C8000ED18002D00D145E6E86807E7302291469F
:103C9000EB18634499444B46DB789B07D5D5FFF777
:103CA00017FC4B460222DB7893434A46D370D37805
:103CB000BB43D370C9E70CAB9A1C504601230EA935
:103CC000157000F003FAFFE4FFF7E8FB0222FB782F
:103CD00013430122FB70FB781343FB70B5E7C0462A
:103CE000152C00101D230020CC5C0010B1450010E5
:103CF000B81700208C5C00100000000000000000DD
:103D000000000000BC0E0020581EC0B2FFF780F972
:103D1000002800D1FEE543780793022B00D0F9E597
:103D20000121C279B146931152110B400A40120190
:103D30005B0113432A782F318A4313432B700923E5
:103D4000984680444746A846C37882781B021343AE
:103D5000C31804935C4B0993049BBB4200D881E0D9
:103D60007B7801220B2B02D13B78FA78FF187B7805
:103D7000042B23D10025049B0B92DB1B9BB20593E4
:103D8000524B19780693524B0A93524B08930A9B55
:103D9000002B52D0099B089E8D4245D339005046D6
:103DA000059A98478446082802D9059A824262D229
:103DB000069B01351978EDB2A942E8D24E46A9E535
:103DC0005046FFF755FB00229146434AAB780592D7
:103DD0002A004D46914604933C4B3D4F98461B7834
:103DE000002F1BD0059A9D422CD350469047434646
:103DF00001351B78EDB2AB42F2D24D465322002181
:103E00002800FEF701FD1022FF213448FEF7FCFCDC
:103E10002022FF213248FEF7F7FC02E0002D1BD0E4
:103E20004D46049BAB7072E618232E4A6B4316680E
:103E3000F618002EC2D0B368B0E7002DBED1224BD9
:103E4000244EABE7274A6B0012685B19DB00D318DE
:103E5000002BE5D05A68C8E71F4AC6E7FFF7D8F835
:103E60000200D4E6204B45464E46002B00D152E6D8
:103E700000E000BF4FE60B9A012A1FD00021464602
:103E800009E0BB78CB18DBB2F318D878FF2895D1BE
:103E90000131DD70C9B29142F3D1B04666462B00C4
:103EA000390032000E4800F01FFDB446069B6744FF
:103EB0001B78AB4200D34FE74E462BE5024BB1686F
:103EC0009942DBD1079AD9E7CD4400101D23002089
:103ED000152C0010CC5C0010A1440010E31A002047
:103EE000F31A0020B817002000000000F8B557466C
:103EF0004E46DE4645460C00E0B516001F00002A7F
:103F00003CD01F4B00259A46702399461D4B9B467B
:103F100017E05B462000997800F0A8FC00281FD02D
:103F200021004046FFF720FA002819D0A378DA09CB
:103F3000012A1CD00A9A013513702378E418B5427F
:103F40001CDA6378052B0BD1E3789B079B0FBB42F0
:103F500006D153464A461B789846A3781A42D8D0D1
:103F60000020F0BCBB46B246A946A046F8BD0B9A5D
:103F7000013513702378E418B542E2DB0120F0E745
:103F8000BC0E0020E01A0020802310B51B0184B075
:103F900001930E4B02901C6803916269EFF310834A
:103FA00072B611680029FCD0BFF35F8FA3612000B7
:103FB00001A900F0DFFD6269A369BFF35F8F0021F3
:103FC000116083F3108804B010BDC046381B002078
:103FD000702270B5094B0C001D788B781A4201D005
:103FE000002070BD064B2000997800F03FFC0028AF
:103FF000F6D021002800FFF7B7F9F2E7BC0E002049
:10400000E01A00200B007F2010B51840DB09333385
:104010004000044AC018044B1168C01800F0E2FBCD
:1040200010BDC046341B0020E01A00200B007F208A
:1040300010B51840DB0933334000044AC018044B64
:104040001168C01800F0F6FB10BDC046341B0020FC
:10405000E01A002070B57F240F480C40640004195A
:10406000CD0964193034E078C00701D5002070BD57
:104070000126E578094835430078E570FFF7FCF93B
:104080000028F4D10122E3789343E370E37803320C
:104090009343E370EAE7C046E01A0020BC0E00201C
:1040A00070B5094C0600082220000D00FEF7B2FB97
:1040B00000238021E360A3602B7830009943002225
:1040C0000023FFF7C7FF70BD841A0020F8B5CE4665
:1040D00047469046264E80B58146082230000D00A6
:1040E0001F00FEF797FB4346B3600023F381EC7992
:1040F000AB7924021C43231CBC4200D93B1C9FB259
:10410000B381002C0ED0002F18D04346002B2CD0AA
:104110003B1C402F1BD89FB233787F2B1CD800212B
:10412000144A0FE080212B7800229943484600234F
:10413000FFF790FFC0BCB946B046F8BD7F23002210
:10414000317899433B004846FFF784FFF2E740236C
:104150009FB233787F2BE2D9064C3A0041462000CB
:10416000FEF758FB80212200ECE70020E2E7C04682
:10417000841A0020A01A002010B514220021024841
:10418000FEF742FB10BDC046841A0020014B1861A7
:104190007047C046841A002010B5054C0100082263
:1041A0002000FEF737FB0023A360E36010BDC0468C
:1041B000841A002070B5394C1D0023780600DA09F6
:1041C000C9098A4213D00020002D00D070BD344BA5
:1041D000002B03D021003000FFF7B8F82369002B33
:1041E00003D022000321300098470120EEE7A068A9
:1041F0007F2B05D8002834D02A002A49FEF70AFB75
:10420000E289A1685219E38892B24919E281A1605A
:10421000934214D03F2D12D9A389981A051C80B25D
:1042200040282AD82078ADB27F2828D800219A4289
:1042300032D01C4A2B003000FFF70CFFC6E7236981
:10424000002B05D0220002213000984700280AD018
:10425000802123780022994330000023FFF7FAFEE3
:10426000B4E70020B2E700213000FFF717F9300073
:104270008021FFF713F90120A8E74025D2E79A42F1
:1042800007D0084C2A002000FEF7C4FA8021220043
:10429000D0E780210022CDE70022CBE7841A00205E
:1042A0004D330010A01A002010B50400FFF76EF97E
:1042B000002801D1002010BDFFF770F90028F9D1C6
:1042C000B22292006243034B01309B181B791840C5
:1042D000F1E7C046BC170020B2239B00434310B552
:1042E0000248181800F050FB10BDC046CC17002043
:1042F000F0B5B225AD0045432C00C646174F10342B
:10430000E41900B5200092B200F0C0FB06002000C6
:1043100000F058FB3F2803D8300080BCB846F0BD01
:104320007B190020D9789846FFF76CFE0028F3D05F
:10433000200000F047FB3F280AD992239B00EA188F
:104340004346D219D97800204023FFF783FEE3E7E4
:1043500043460020D978FFF769FEDDE7BC1700204F
:10436000F8B50400FFF712F9002801D10020F8BDCC
:10437000FFF714F90028F9D1B2239B005C43250014
:10438000144E2435AD19280000F0FEFA0028EDD0B7
:1043900037190020B978FFF735FE0028E6D0A223B0
:1043A0009B009C466444A41921002800402200F090
:1043B0006DFBB978051E08D0030022000020FFF72E
:1043C00049FE0028D2D02800D1E70020FFF72EFEBA
:1043D000CCE7C046BC17002070B5B224A40044430B
:1043E000094B0500E418200092B200F017FC06000B
:1043F000200000F0C9FA3F2801D8300070BD280025
:10440000FFF7AEFFF9E7C046E0170020B2239B009C
:10441000434310B50248181800F0D4FA10BDC04646
:10442000E0170020B222F0B51B4C83B00021200021
:104430009200FEF7E9F9FF236371184B80260025EF
:10444000E380012708232100200076002373320037
:10445000278138310095073B103000F05FFA2100CA
:10446000200039313200FF3101230097243000F061
:1044700055FA8E239B00E6183000FCF79BFE902334
:104480009B002662E6183000E561FCF793FE266388
:10449000656303B0F0BDC046BC17002000C2FFFF3B
:1044A00010B5094C052200212000FEF7ADF92000CF
:1044B0002434103000F06EFC200000F06BFC012171
:1044C000200000F087FC10BDBC170020F0B54B7930
:1044D000060083B0022B02D18B79022B03D000257A
:1044E000280003B0F0BD2F4FBB78002BF7D18B789D
:1044F00009253B700C780C196378242B0BD1082A02
:1045000002D81FE0AA421DD32378E4185D1963780E
:10451000ADB2242BF6D0052B31D0042B12D1637908
:104520000A2B0FD1204B27780193013300930222ED
:1045300002233000E119FFF7D9FC0028CFD00E3557
:10454000ED19ADB2194C200000F03CFA3F28C7D954
:104550002600103E0020F178FFF754FD0028BFD060
:10456000200000F02FFA3F2817D98E239B00E21875
:10457000F93BF178FF3B0020FFF76CFDB0E721002D
:104580003000FFF725FD0028A9D0A3787B702378A1
:104590005D19E4186378ADB2BFE7F1780020FFF74A
:1045A00045FD9DE7BC170020BE170020CC1700205A
:1045B000F8B5602314001278050013400020202B6A
:1045C00012D12F4A6379277916781B023B439E420A
:1045D0000AD16378222B1AD007D8202B3CD0212B6C
:1045E00002D1012930D00120F8BD232BFCD10129B3
:1045F0003FD00329F7D1234B002BF4D0E178A378E7
:1046000009020020194300E000BF0120ECE7012966
:104610002FD00329E7D101252E00A378E4780239B1
:1046200024021C431471264024321000714000F013
:10463000D1FB154B002BD6D06208002031002A4058
:1046400000E000BF0120CFE70723210028000F4A28
:10465000FFF73CFD0120C7E70129F5D00329C2D1AE
:104660000B4B002BBFD00020911DFEF7D9FA012083
:10467000BAE721002800FFF713FD0120B4E7C04688
:10468000BC1700200000000000000000C21700203E
:10469000212C0010F8B545465746DE464E46E0B59B
:1046A000464D1F00EA7880460C00AB788A4246D01F
:1046B00000208B421AD0F0BCBB46B246A946A046A9
:1046C000F8BD3F4B002B04D0484600F073F900289A
:1046D0006CD0484600F076F93F2807D94E46103E88
:1046E0000020F178FFF78EFC002851D1AB78A3426F
:1046F00001D00120DFE7334B002B02D0002000E087
:1047000000BF0020FFF72CFE0028F2D12E4C200025
:1047100000F03AF90028ECD1002FEAD0BF06E8D12A
:10472000243C4046A178FFF76DFC0028E1D000232F
:1047300000224046A178FFF78DFC0120BBE79223C1
:104740009B00EE1810239B46AB4431005846BAB28A
:1047500000F064FA1D4BD946002BB2D06B79FF2BC9
:10476000AFD0002FADD0F219924603E00136B2452A
:10477000A7D06B7932789A42F8D1484600F01AF9FE
:104780000028F3D14B46103B597900E000BFEDE71C
:10479000484600F017F93F280BD98E22920040239B
:1047A000F1784A440020FFF755FC9FE7FEF7ACFB89
:1047B0008FE7F1780020FFF739FC97E7BC1700205E
:1047C000092F001000000000E0170020000000008A
:1047D00010B50020FEF7F4FE10BDC04610B5FEF780
:1047E000E5FE10BD037870B5DB0704000E00DD0F99
:1047F000002B17D103785B0701D5280070BD01217C
:104800003000494201F0A0F82378DB07DD0F002BD0
:104810000AD123785B0708D40422237801251343A7
:10482000237002E00025E8E70025300001F05CF885
:10483000E3E7C04670B50C000121060049422000A4
:1048400001F082F833785B07DD0F002B04DB2000DA
:1048500001F04AF8280070BD3378DB0704D4042245
:10486000337893433370F2E70025F0E74379027918
:104870001B021343C2785B0592075B0D920F022A5D
:104880001DD0032A0CD00020012A08D102394A4247
:104890005141124A9446614499424041C0B2704726
:1048A00002394A1E91410E4A494211408022D200EB
:1048B00094460020614499424041C0B2EFE702298A
:1048C00005D0002040229A424041C0B2E7E7054AA5
:1048D000981843425841C0B2E1E7C046FF030000C8
:1048E00040FCFFFF00FEFFFF8A1870B5914207D21F
:1048F0007F264C78052C04D00C7809198A42F8D808
:1049000070BD34008D782C4064000419ED096355A6
:104910000C7809198A42ECD8F2E7C046F0B5C646D1
:1049200000B5040006A805788020884617001E0000
:104930000002824226D8E068002803D001214942C3
:1049400001F002F82069002803D00121494200F05B
:10495000FBFF4346236073045B0CED031D43002300
:10496000E0686381A780E5802381002801D000F002
:10497000BBFF2069002801D000F0B6FF012080BCF9
:10498000B846F0BD0020FAE710B504894189828855
:10499000A3B288B28C4207D31B1A9BB2101C9A4256
:1049A00000D9181C80B210BD5100091A5B189BB2C7
:1049B000F4E7C04603894089181A43425841C0B2FF
:1049C0007047C04610B5048941898288A3B288B275
:1049D0008C4207D31B1A9BB200209A4201D9D21AEB
:1049E00090B210BD5100091A5B189BB2F4E7C046A3
:1049F00070B5040000690E00002803D0012149426F
:104A000000F0A2FF25896089A288A9B283B28542FD
:104A10002CD3CD1AADB2002D2ED0AA4208D291428D
:104A200030D3891A8BB263819A4203D89B1A9BB206
:104A30009A42FBD9E28821685204520C5343300059
:104A4000C918FDF7E7FE63890125591C89B2A288C0
:104A50008B4213D900215200891A89B220696181E1
:104A6000002801D000F040FF280070BD5500ED1A6D
:104A70004D19ADB2002DD0D1618989B25200914259
:104A8000ECDBE9E789188BB26381CDE7F0B54646E8
:104A90004F46D646C0B506000069894690460028B4
:104AA00003D00121494200F04FFF31897289B58856
:104AB0008BB294B2914254D31F1BBFB2002F4AD085
:104AC000BD4205D2AB4251D25B199CB22F0074811A
:104AD0004346B8453DD89FB2A54203D8641BA4B253
:104AE000A542FBD9F28831685204520C90466243C9
:104AF0002B1B9BB2891842469F4225D953439BB238
:104B00001A0048469A46FDF785FE434648467D1BF7
:104B100064195C4331685044A2B2FDF77BFE718991
:104B2000B588CB199BB26A00994216D99B1A9BB2E1
:104B300030697381002801D000F0D6FE3800E0BC57
:104B4000BA46B146A846F0BD48467A43FDF762FE34
:104B5000E5E73B1CBFE773899BB26A009342E7DB42
:104B6000E4E76F003F1BDF19BFB2A7E75B1B9CB2F6
:104B7000ACE7C046F8B50400C0680E00002803D0BA
:104B80000121494200F0E0FE258920896189A2883F
:104B9000ADB283B28FB2884229D3DB1B9BB29A425B
:104BA00009D8E779FF0906D1E068002801D000F0B4
:104BB0009BFE3800F8BD95421ED32B009B1A9BB27A
:104BC0009342FBD2E28820685204520C53433100D6
:104BD000C018FDF71FFE6B1C9BB2A2889D4218D91E
:104BE000002352009B1A9BB201272381DCE751006E
:104BF000C91B5B189BB2D2E72B00E28820685204E5
:104C0000520C53433100C018FDF704FE0135A28851
:104C1000ABB252009342E7DBE4E7C046F0B557463B
:104C20004546DE464E46E0B5140005000F0083B051
:104C3000002A75D0C068002803D00121494200F045
:104C400083FE2E89E9796A89AB88B6B292B2C90926
:104C500045D1964200D36DE059008A1AB21892B23B
:104C6000002189469A4234D29A1A111C92B2A24269
:104C700000D9211C8AB29146EA885204520C90460F
:104C80004A46B21892B292464A46D21A92B2934615
:104C900034009E4203D3E41AA4B29C42FBD24246A3
:104CA000624328681B1B9BB2801842464B4554D375
:104CB0004B4639005A43FDF7ADFDAB885B00B2456A
:104CC00001D39A4503DB5246D31A9BB29A46534608
:104CD0002B81E868002825D000F006FE22E0E98854
:104CE0004904490C88469C4227D2964247D3B11AC0
:104CF00089B28C465800E11A89B28B46614609197F
:104D0000814208DBD11889B20E1BB6B28A46B24284
:104D10003BD9361AB6B2A21992B29246A146B7E76B
:104D200000239946484603B0F0BCBB46B246A946AC
:104D3000A046F0BDB21A92B292E700218946002B3C
:104D4000C7D04146E41A4C431600D118002289B25C
:104D50008A46994693463F199AE753439BB21A00F5
:104D600039005C440193FDF755FD414622004A435A
:104D7000019B286892B2F918FDF74CFD9DE7580099
:104D8000811A711889B28C46B5E7A146B04200DDA0
:104D90007EE7BEE710B50400C068002803D00121FB
:104DA000494200F0D1FD2069002803D00121494289
:104DB00000F0CAFD0023E06863812381002801D050
:104DC00000F092FD2069002801D000F08DFD012047
:104DD00010BDC04670B50400C0680D00002803D0A7
:104DE0000121494200F0B0FD2069002803D00121D3
:104DF000494200F0A9FD7F21E379ED011940E06807
:104E00002943E171002801D000F06EFD20690028DF
:104E100001D000F069FD012070BDC046F0B5DE464E
:104E200057464E4645468846E0B583B00600052401
:104E3000FBF746FE43461F791C57314B8246F31859
:104E40005A4253419B009C462E4A130093466246A9
:104E50009B5801229946BA402023013ADB1B002CC3
:104E600036DB9C4246DCA2404B46134242D10192C3
:104E7000002F1CD04246434652781B7812021A4338
:104E800043469B7880251B0413434246D07800227A
:104E900000061843AD015300C15AA94200D20919B6
:104EA000A31812339B0001329951BA42F3D34D46F5
:104EB000019B62461D435B4650469D50FBF70CFE2E
:104EC000200003B0F0BCBB46B246A946A046F0BDE8
:104ED000002B0FDB1100484699401C000191014254
:104EE00006D1C5E7150049469D401C00294204D063
:104EF000013BF7D20448FDF7C9FA0195B8E7C0466F
:104F00000000D0AFFC1B00204C5B0010F0B5012569
:104F10008D400468AC430460002B2ED04D006C180B
:104F2000E400041926001F68C83637605F68DC3467
:104F300077609F68DB68B76023606B18DB001D003B
:104F40008024D035451964012C4380252D06256029
:104F500025600125124C2E008C4084600C1DA6405B
:104F6000802408318D401F21A4010443C0180A4049
:104F7000D830266025600260F0BD4D006C18E4005A
:104F8000041926008027C8367F023760F8277F0281
:104F90007760C027DC343F03B7602360CDE7C046AD
:104FA0000101010110B5034B0100186800F004F87D
:104FB00010BDC046D0120020F0B54E464546DE4634
:104FC0005746E0B50D000B35060085B0162D27D8E5
:104FD000102900D9DAE000F0DFFA102518230221A9
:104FE000C74FFB181A005C68083A944200D146E1AA
:104FF00003226368A1689343E268CA60916001215B
:10500000E3185A6830000A435A6000F0CDFA2000D5
:10501000083005B0F0BCBB46B246A946A046F0BD7C
:1050200007239D4300D5B1E0A94200D9AEE000F0CE
:10503000B3FAFC235B009D4200D29AE1690A00D1D9
:10504000A8E0042900D94FE138239846A9098844EB
:105050003931CB00082252429446A94FFB189C4498
:105060006346DC68A44514D0032399460B006146CF
:105070009C4607E0E068002A00DBFAE0814200D1AC
:10508000FBE004004A46636893435A1B0F2AF1DD94
:1050900041463A003C690832944200D1D8E00320EE
:1050A00063688343581B0F2800DD66E13A617A612B
:1050B0000028A4DA7A68904680229200934200D3B6
:1050C000E3E0DA085809012383404046184380464C
:1050D000D300DB199A687860E360A2609C60D460BA
:1050E00001208B10984040455CD8434603420AD1CA
:1050F00003239943434640000431034203D1400057
:1051000004310342FBD00323B3469C460E00B8464D
:105110000190F00040440100B246CB680BE06446C9
:105120005A681F00A243DB68541B0F2C00DDF3E01C
:10513000002C00DB0DE19942F1D101239946CA44CC
:10514000534608319B07E8D1032205E0036808387D
:10515000013E834200D00AE23242F7D14346019A2F
:105160005B68934342465360019A520001929A420F
:1051700016D8002A06D113E004229146019ACA44A7
:10518000520001921342F7D05646C2E70C2300208A
:1051900033603EE780233F22402190469B0059E741
:1051A0005E4647460322BC68636893439946AB4218
:1051B00002D35B1B0F2B4EDC23004B440293514B5D
:1051C00008201B6810335B19019300F0D7F94E4992
:1051D00003900B688B46013306D08446019B424204
:1051E000013B6344134001933000019900F056FBEA
:1051F00003008046013300D1DDE0029B834200D9E9
:10520000D7E0019A414B944619689A466144039A43
:105210001960029B0800013A434500D0EAE043468A
:10522000134200D0E6E0BB68984663464B441A0040
:1052300001231A4343465A60354B1868884200D20E
:105240001960344B1868884200D219604446B4E0B3
:105250007B68984644E701222900134311436519EE
:1052600061603000BD606B6000F09EF92000083086
:10527000CFE6A268D0608260C1E6614609E7DC68DB
:105280000231A34200D104E7B2E65A0A042A00D848
:1052900088E0142A00D90FE110005B3082465C32AE
:1052A000D200082040428446BA189444624692686C
:1052B0000B308146944500D1E5E00800A2466146E6
:1052C000844602E09268914204D04C465068A04364
:1052D0009842F7D8D368614654469C466346A2601C
:1052E000E3609C60D460FBE6142973D9542900D98B
:1052F000EBE06E239846290B88446F31CB00A9E67A
:10530000C80E00207C160020C00E00204C16002085
:105310007416002078160020BA46012051468446B3
:105320004919054350464560856847466046EB602D
:105330005E469D6053463961796120430837486075
:10534000CF6030008F609C5000F02EF9504608303E
:105350005FE6BA4601205E465244516801435160FF
:10536000BA683000D3609A6000F01EF93800083047
:105370004FE62B00E908083332E66119884601211F
:105380008C460D434146656039617961CA608A6027
:10539000624602434A60E050300000F005F9200008
:1053A000083036E69A091000393238308246D20089
:1053B00077E7BC4214D0BC68626803239A43531B4E
:1053C000AA4202D30F2B00DD45E7300000F0ECF8D5
:1053D00000201EE65B23984688445C31CB0039E60A
:1053E000644B9A461868019B9C465346604418607B
:1053F000039B5A1E5B461B68013371D043460299DA
:105400005B1A51461B180B60072341464046194062
:105410000291184240D00398013384465B1A0199E7
:10542000984441440191634411405B1A1A401100B1
:105430003000934600F032FA431C78D04346C01A3D
:1054400003005B44019353461968012059441960D5
:105450004346019ABB6002435A60BC4200D1EBE66E
:105460004B460F2B40D907220C3B93436268024006
:1054700005201A436260E218506090600F2B4BD8F1
:1054800043465A68D8E65346981001238340404665
:1054900018438046786021E7019B039943441340F9
:1054A000CB1A1A4011003000934600F0F7F9431C64
:1054B000C4D100239B46C6E7542A18D81A0B100003
:1054C0006F326E308246D200EBE6AA235B0099422F
:1054D00018D8DD3B9846E90B88447831CB00B9E514
:1054E0005B46414619608FE7434658606DE7AA2046
:1054F0004000824226D8DA0B10007832773082469C
:10550000D200CEE61C4B994226D87C239846A90CA3
:1055100088447D31CB009DE521003000083100F04A
:10552000D3F853461968BB6898465A6884E6019ACE
:10553000029B94464246083B63449B1A0193002316
:105540009B4680E70C4882420CD89A0C10007D32B2
:105550007C308246D200A4E6FE237E227F21904644
:105560009B0077E5FE227E209200824699E6434624
:105570005B68F9E54C16002054050000802310B547
:105580005B01082801D1180010BD00F099F916231D
:105590000360173BF7E7C04610B5024800F096F9E4
:1055A00010BDC0464816002010B5024800F090F922
:1055B00010BDC0464816002010B583070AD003006E
:1055C000032102E001330B4205D01A78002AF9D1F9
:1055D000181A10BD030019680C4A0D4C8A188A432A
:1055E00022420FD15968094A04338A188A43224259
:1055F00008D15968054A04338A188A432242F1D0F7
:1056000000E001331A78002AFBD1E1E7FFFEFEFE3D
:1056100080808080F0B5C646060000B508200D00E9
:10562000FFF7ACFF04003000FFF7B6FF234B21006B
:1056300098469B685F6803239F4338001138401BDE
:105640000019FCF79BFF451E6543AC4208DC0021B6
:10565000300000F023F943469B68DB19984206D0DE
:105660003000FFF7A1FF002080BCB846F0BD30003D
:10567000694200F013F901300ED0012243467F1B2E
:105680009B6817430E4A5F60136830005B1B136012
:10569000FFF78AFF0120E7E70021300000F0FEF865
:1056A00043469A68831A0F2BDADD064C04492468B6
:1056B000001B086001210B435360D1E7C80E002096
:1056C0004C160020C00E0020F8B5CE464746050017
:1056D0000C0080B5002957D0FFF75EFF01232100A1
:1056E0009C46083948686246030003249343CF1858
:1056F0007A68654EA243B468BC4200D170E0BC1821
:10570000A14664467A60044221D10868091A1B1830
:105710008868804648464068204034000834814606
:10572000A04551D04046CC68C460A06048460028DF
:1057300011D19B185548BA68824200D17FE0F868C1
:10574000D060826001221A434A60CB5007E048468D
:1057500040682042EDD062461A434A603B60802296
:105760009200934214D2DA085809012383407068EA
:1057700003437360D3009B199A68CB608A60996079
:10578000D1602800FFF710FFC0BCB946B046F8BD95
:105790005C0A042C3DD89C09200039343830E400E0
:1057A00034192268083C0327944203D140E09268F0
:1057B000944203D05068B8439842F8D8D468CC607B
:1057C0008A60A160D160DCE7002858D1B868D2189F
:1057D000FB68C3609860634613434B608A50D0E710
:1057E0009A186346034206D10B68C91A8868D21812
:1057F000CB68C3609860012313434B60244BB160B6
:105800001B689342BDD8234B28001968FFF702FF9D
:10581000B7E7142C07D9542C1AD81C0B20006F346E
:105820006E30E400BCE720005C345B30E400B7E796
:10583000012380108340706803437360BFE7D16029
:105840009160CA608A6001221A434A60CB5098E78F
:10585000AA225200944205D8DC0B2000783477301D
:10586000E4009DE70C4A944205D89C0C20007D344E
:105870007C30E40094E7FE247E20A40090E762469A
:105880001A434A603B607CE7C80E0020D00E00201F
:10589000C40E00207C16002054050000002370B5C3
:1058A000064C050008002360FCF7D2FD431C00D025
:1058B00070BD2368002BFBD02B60F9E7901D002002
:1058C000014B18687047C046D01200207047C04690
:1058D0007047C046F8B5C04601B40248844601BCD2
:1058E000604700BFC902002001B40248844601BCE1
:1058F000604700BF2D02002001B40248844601BC6D
:10590000604700BFB109002001B40248844601BCD1
:10591000604700BF8903002001B40248844601BCEF
:10592000604700BF750D002001B40248844601BCE9
:10593000604700BFD909002001B40248844601BC79
:10594000604700BFC100002001B40248844601BC8A
:10595000604700BF9D01002001B40248844601BC9D
:10596000604700BF0101002001B40248844601BC29
:10597000604700BF4D0B002001B40248844601BCC3
:08598000604700BFF50A00209A
:105988009059001001FF0000014000009C590010D0
:1059980001FF000001400000A859001001FF0000AD
:1059A80001400000B459001001FF00000140000050
:1059B8004E6F207370696E6C6F636B7320617265D4
:1059C80020617661696C61626C6500004E6F2075BC
:1059D8007365722049525173206172652061766146
:1059E800696C61626C650000486172647761726518
:1059F80020616C61726D20256420616C7265616440
:105A08007920636C61696D65640000000A2A2A2A9E
:105A18002050414E4943202A2A2A0A000A00000041
:105A28004861726420617373657274006D69737381
:105A3800696E6720646F75626C652066756E637445
:105A4800696F6E004F7574206F66206D656D6F729B
:105A58007900000052656C6561736500626F6F7450
:105A6800325F77323571303830000000302E310027
:105A7800312E352E310000007069636F5F770000AA
:105A8800426974446F67416E616C797A657200008F
:105A98004665622032332032303235005553422079
:105AA800737464696E202F207374646F75740000BA
:105AB800526173706265727279205069000000004B
:105AC8005069636F00000000426F617264204344B4
